:020000040800F2
:10000000D80A002001010008211A0008BD120008CA
:10001000D1190008A90B00081B2C000800000000E3
:100020000000000000000000000000003521000872
:10003000E10E0008000000001D2000085B230008FE
:100040001B0100081B0100081B0100081B01000820
:100050001B0100081B0100081B0100081B01000810
:100060001B0100081B0100086D1100081B0100089E
:100070001B0100081B0100081B0100081B010008F0
:100080001B0100081B0100081B0100081B010008E0
:100090001B0100081B0100081B0100081B010008D0
:1000A0001B0100081B0100081B0100081B010008C0
:1000B0001B010008CD2400081B0100081B010008DB
:1000C0001B0100081B0100081B0100081B010008A0
:1000D0001B010008352900081B0100084D2A0008F3
:1000E0001B0100081B0100081B010008DFF80CD0F1
:1000F00000F0CCFC0048004745840008D80A0020E6
:100100000648804706480047FEE7FEE7FEE7FEE7B1
:10011000FEE7FEE7FEE7FEE7FEE7FEE75D230008F9
:10012000ED0000082DE9F0410024061B254671F181
:10013000000605DA01240027D0EB070067EB010178
:10014000161E73F1000605DA0027D2EB070201251F
:1001500067EB030300F08CFB86460E4617469C4671
:10016000AC4204D00025D0EB050E65EB010624B1AE
:100170000020D2EB000760EB030C704631463A4694
:100180006346BDE8F08140EA01039B0703D009E024
:1001900008C9121F08C0042AFAD203E011F8013B73
:1001A00000F8013B521EF9D27047D2B201E000F8CC
:1001B000012B491EFBD270470022F6E710B513460B
:1001C0000A4604461946FFF7F0FF204610BD30B539
:1001D00004460020034600E05B1C934203D2E05C2F
:1001E000CD5C401BF8D030BD034611F8012B00F860
:1001F000012B002AF9D118467047F0B480EA0102B9
:10020000D40F4200B2EB410F02D20246084611461B
:100210004A0042D0C30DDDB2C1F3C752AD1A202D42
:1002200035DAC1F3160141F4000204B15242C5F1BE
:10023000200602FA06F12A411044B3EBD05F23D026
:10024000C4B1012DA0EBC35009DCF0BC4FF000425B
:1002500002EAC352DBB200F5000000F074BB4000BC
:1002600000F1807000EBC350A0F1807040EAD170C3
:10027000490009E0490841EAC071A0EBC35000F50C
:100280000000400800EBC350F0BC00F053BB6142DB
:10029000012202EB4101001BF6E7F0BC704781F040
:1002A0000041AAE780F00040A7E780EA010210B50C
:1002B00002F00043400022D04A001FD0010E01EBA3
:1002C0001261C0F35600C2F3560240F4000042F43B
:1002D0000002A0FB022000047F39140400D0401C5F
:1002E00050EA124001D44000491EC2B20C0604EB91
:1002F000D010401C4008802A02D003E0002010BD2E
:1003000020F00100002900DA0020184310BD30B4AD
:1003100080EA010202F0004530F0004221F0004086
:1003200013D090B1C30DD40DC2F31601C0F3160063
:10033000E41A41F4000140F400027D34914201D3FB
:10034000641C00E04900002C02DA30BC0020704739
:100350004FF400000023914201D3891A034340085F
:100360004FEA4101F7D151B1914202D14FF0004122
:1003700005E002D24FF0010101E06FF0010103EB53
:10038000C450284430BC00F0D5BA2DE9FE4F804659
:1003900081EA0300C00F0C46009021F0004123F0D9
:1003A0000045B8EB0200A94105D2404621469046DF
:1003B0001C460B46024623F00040104347D0270D51
:1003C000C7F30A00C3F30A510290401A0190402873
:1003D0006BDAC3F3130040F4801B0098924620B1FF
:1003E0000023D2EB030A63EB0B0B01985946C0F1D3
:1003F0004002504600F06DFA06460D4650465946FA
:10040000019A00F085FA10EB08006141002487EAA8
:10041000115284EAE7731A4340D0009A62B3019AFA
:10042000012A4FEA075215DC001B61EB02014FF075
:10043000004202EA0752CDE90042001C41F580115A
:1004400032462B4600F0BCFA03B0BDE8F08F4046C0
:100450002146F9E7001B61EB0201001C41F5801306
:1004600000185B412018A2F5001747EB030140EA92
:10047000D570B6196D4111E06D084FEA360645EAB0
:10048000C0754FEA0752001B61EB0201001C41F5E9
:10049000801149084FEA30000019514132462B467D
:1004A00003B0BDE8F04F00F07CBA00980122400094
:1004B0000023D0EB020263EBE073009821464FEA81
:1004C000E074B8EB000061EB0401E9E783F000435E
:1004D0005BE781F0004158E72DE9FE4F81EA030414
:1004E00004F0004421F0004100944FF0000B23F091
:1004F000004350EA01045ED052EA03045BD0C3F328
:100500000A54C1F30A552C44A4F2F3340194A0FB1D
:100510000254C1F3130141F48011C3F3130343F4F4
:10052000801301FB024400FB034E840A970A44EA4D
:10053000815447EA8357A4FB076802958D0A05FB9F
:1005400007854FEA932C04FB0C542705029D4FEAC4
:10055000065847EA1637B5EB08056EEB070C870E11
:10056000920E47EA811742EA8312A7FB0201B6EB1B
:100570000B0164EB00042B0D43EA0C335E1844EBD3
:100580001C50DA465146E7FB0201C5F313044FEA5B
:100590000B3343EA14534FEA0432019C43EA060347
:1005A000A4F10C040294009CCDE900B400F008FA18
:1005B00003B0BDE8F08F00200146F9E72DE9F04DCA
:1005C00081EA030404F0004B21F0004514464FF08B
:1005D000000A23F0004150EA050220D054EA01024B
:1005E0001DD0C5F30A570246C5F31303C1F3130028
:1005F000C1F30A5640F4801543F48013A7EB0608B4
:10060000101BD64608F2FD3873EB050002D308F143
:10061000010801E092185B41B8F1000F03DA0020F5
:100620000146BDE8F08D00204FF480110646844657
:100630000EE0171B73EB050705D3121B63EB0503D5
:1006400006434CEA010C49084FEA300092185B411E
:1006500050EA0107EDD152EA030012D082EA040009
:1006600083EA0501084305D0101BAB4106D20122E5
:10067000002306E000224FF0004302E06FF0010289
:1006800053101AEB06004CEB085110EB0A0041EB3B
:100690000B01BDE8F04D00F084B9C10F80EAE070B5
:1006A0000844CA079623002100F04DB99623002282
:1006B000114600F048B90EB5C10F80EAE070084459
:1006C000CA07002140F233438DE80E000A460B466C
:1006D00000F076F903B000BD0EB540F2334102914F
:1006E0000021CDE900110A460B4600F069F903B07C
:1006F00000BD00F0004220F00040C10DC0F3160024
:1007000040F400007F2901DA00207047962903DCBD
:10071000C1F19601C84001E096398840002AF4D022
:100720004042704720F00040C10DC0F3160040F475
:1007300000007F2901DA00207047962903DCC1F10F
:100740009601C840704796398840704770B5C1F32C
:100750000A5201F000450024C1F3130140F2FF33B7
:1007600041F480119A4201DA002070BD40F2334317
:100770009A42A2F2334203DC524200F0B9F800E0A0
:1007800090402C43F1D0404270BD00F0004230F068
:1007900000400AD0C10D01F56071C0F3160042EAB5
:1007A0000151C208400711437047002001467047BD
:1007B00030B5041E71F1000404DB4FF000444042E8
:1007C00064EB0101141E73F1000405DB1C464FF0BD
:1007D0000043524263EB04038B4208BF824230BDA8
:1007E00030B5041E71F1000404DB4FF000444042B8
:1007F00064EB0101141E73F1000405DB1C464FF08D
:100800000043524263EB0403994208BF904230BD5B
:1008100001F0004330B421F0004150EA010206D05B
:100820000A0DA2F56072C1F31301002A02DC30BC8C
:1008300000207047440F44EAC104C100E01830BCF6
:1008400000EBC25000F076B8002801DBC0F1004098
:10085000002901DBC1F1004181427047002801DB22
:10086000C0F10040002901DBC1F10041884270471E
:100870002DE9F05F0546002092469B4688460646D5
:10088000814640241BE0284641464746224600F068
:100890002FF853465A46C01A914110D311461846B4
:1008A000224600F016F82D1A67EB01084F46224643
:1008B0000120002100F00DF817EB00094E41201E29
:1008C000A4F10104DFDC484631462A464346BDE830
:1008D000F09F202A04DB203A00FA02F10020704742
:1008E0009140C2F1200320FA03F31943904070476E
:1008F000202A04DB203A21FA02F00021704721FA75
:1009000002F3D040C2F120029140084319467047DB
:10091000202A06DBCB17203A41FA02F043EAE073C3
:1009200006E041FA02F3D040C2F1200291400843B0
:10093000194670470029A8BF7047401C490008BFEE
:1009400020F00100704710B4B0FA80FC00FA0CF0FF
:1009500050EA010404BF10BC704749B1CCF1200437
:1009600021FA04F411FA0CF118BF012121430843C4
:10097000A3EB0C01CB1D4FEA00614FEA102042BFF0
:10098000002010BC704700EBC35010440029A4BFE6
:1009900010BC7047401C490008BF20F0010010BC8B
:1009A000704710B5141E73F1000408DA401C41F1C1
:1009B000000192185B411A4301D120F0010010BDE3
:1009C0002DE9F04D92469B4611B1B1FA81F202E059
:1009D000B0FA80F220329046FFF77BFF04460F46C4
:1009E00040EA0A0041EA0B0153465A46084313D035
:1009F000114653EA010019D0C8F140025046FFF7F2
:100A000077FF05460E46504659464246FFF761FFBE
:100A1000084305D0012004E020463946BDE8F08DAA
:100A20000020054346EAE0762C4337430A986305E5
:100A3000E40AA0EB08000022FD0A44EA47540A3009
:100A400002D500200146E9E7010510196941DDE9F9
:100A5000084500196941BDE8F04DA2E770B521F0E5
:100A6000004303430CD0C1F30A550024D5EB040521
:100A700064EB0403D617AD1AB34102DB0020014634
:100A800070BD201841EB025170BD0000064C074DAF
:100A900006E0E06840F0010394E80700984710344E
:100AA000AC42F6D3FFF726FB18B6000838B60008AC
:100AB0002DE9F04D00231A461B1A8A4103DB002062
:100AC0000146BDE8F08DC1F30A52C1F3130141F4B0
:100AD00080154FF0000BD10702D100186D41521E56
:100AE0000027044640F2FF11384601EB620A3E46F9
:100AF0008046024600204FF48011FFF7F9FEC2192C
:100B00007141BB1846EB0100B4EB030C75EB000C14
:100B100004D3E41A65EB000517460E46241908F1C4
:100B200001006D4180463428E3DDF91946EB0600EB
:100B3000091BA84103D24FF0FF32134601E0002207
:100B400013461BEB070046EB0A51BDE8F04DFFF7DB
:100B500028BF70B58C1810F8015B15F0070301D1A0
:100B600010F8013B2A1106D110F8012B03E010F810
:100B7000016B01F8016B5B1EF9D12B0705D4002333
:100B8000521E0DD401F8013BFAE710F8013BCB1AD5
:100B9000921C03E013F8015B01F8015B521EF9D5CA
:100BA000A142D8D3002070BD00BFFEE770B5044657
:100BB0000D462946204600F074FB08B1002070BDA8
:100BC0000120FCE708B50121042001F039FA0420D6
:100BD000ADF800008DF803006946024800F0D6FA2F
:100BE00008BD00000008014008B54FF47A7001F01C
:100BF0007BFB142001F0E2FB002141F61F4001F0D5
:100C000011FC00F05DFB4FF4E13002F05DF84FF4B1
:100C1000E13002F005F8FFF7D5FF00F0DBFE4B48AE
:100C200009F0F6F830B14AA005F014FBC82001F035
:100C30005BFB43E04CA005F00DFB504AC02143484C
:100C400002F009FD4D4801784DA005F003FB504A24
:100C5000C1213E4802F0FFFC4D4801784DA005F04F
:100C6000F9FA504AC221394802F0F5FC4D480178A2
:100C70004DA005F0EFFA12225121344803F0BDF8DF
:100C80004D490870474A5121304802F0E4FC45487C
:100C900001784AA005F0DEFA49F6126262212B487B
:100CA00003F0C1F844490870484A6221274802F01D
:100CB000FEFC4648018846A005F0CCFA4848017879
:100CC000224809F01FF918B146A005F0C3FA02E066
:100CD00049A005F0BFFA00F057FF00F0DBFE00F07E
:100CE00047FD0AE00C2349A20021084601F0D5F88F
:100CF000C82001F0F9FA00F0CDFE07F06FFE0028E1
:100D0000F0D100F0C7FE0C2344A20021084601F0F8
:100D1000C4F8444A44490D4809F08CF92649087042
:100D20000846007870B94148018841A005F092FA60
:100D30000220042300903D4802880621084601F065
:100D40005AF802E03DA005F085FA08BDD80400205D
:100D5000564C35334C30585F496E69742045727279
:100D60006F722121210D0A00564C35334C30585FEB
:100D7000496E6974204F4B0D0A0000007E00002070
:100D80007265676330203D20307825780A0D0000B9
:100D9000820000207265676331203D20307825781D
:100DA0000A0D00007F0000207265676332203D203D
:100DB000307825780A0D00008300002072656735C1
:100DC00031203D20307825780A0D00008000002079
:100DD0007265673631203D20307825780A0D000095
:100DE000840000204D6F6465205365742045727245
:100DF0006F722121210D0A004D6F646520536574C7
:100E0000204F4B2121210D0A000000004D50553686
:100E1000303530204552524F520000005961773A28
:100E200000000000A80400209C0600203E040020D2
:100E3000643A202534696D6D0D0A00004D656173BB
:100E40007572656D656E74206973204572726F727C
:100E50002121210D0A0000001C480088401C1B496C
:100E600008800846008832282EDB002008801848B9
:100E70000088401C1649088008460088B0F57A7F33
:100E800022DB0020088013480088401C114908809C
:100E9000084600883C2817DB002008800E480088A0
:100EA000401C0D490880084600883C280CDB0020C7
:100EB00008800A480088401C0849088008460088C5
:100EC000182801DB00200880704700001600002071
:100ED000180000201A0000201C0000201E00002026
:100EE00070470000FEB500216B480068FFF7B6FCB4
:100EF0001ED269480068FFF748FC0646674A684BFF
:100F0000FFF7E4FA0446FFF783FC634908600846EC
:100F10000068FFF73AFC04460022624BFFF748FCEA
:100F200009D26148C06880F400505F49C86002E09F
:100F300001205E4908605D480068002871D15C4A64
:100F40005C495D4809F076F85C490870084600780D
:100F5000002867D15A4801885AA005F07BF9102073
:100F600007230090564802880621084600F0B0FF8B
:100F7000534800883C2807DD51480088732803DA6D
:100F80000320534908600AE04D480088732806DDB5
:100F90004B480088B42802DA04204D4908604C48C8
:100FA0000068012806D10C234AA20321002000F08A
:100FB00074FF4DE046480068022806D10C2346A283
:100FC0000321002000F069FF42E041480068032847
:100FD00006D10C2341A20321002000F05EFF37E080
:100FE0003B480068042806D10C233DA203210020C1
:100FF00000F053FF2CE036480068052806D10C238A
:1010000038A20321002000F048FF21E030480068AA
:10101000062808D10C2334A20321002000F03DFF54
:1010200016E032E024E02A480068072806D10C23A5
:101030002EA20321002000F030FF09E024480068C0
:10104000082805D10C232AA20321002000F025FF47
:1010500011480068FFF799FB04460B460C2002215B
:1010600000912246CDE90110084600F067FE11E02C
:101070000220052340F29A2206210090072000F06A
:1010800027FF1CA005F0E6F804E04FF400510648E5
:1010900000F010F9FEBD0000AC0000209A9999996B
:1010A0009999B93F0000E03F00100140A4000020E2
:1010B000A80400209C060020D80400208300002003
:1010C0003E040020643A202534696D6D0D0A00004D
:1010D000A800002041000000420000004300000082
:1010E00044000000450000004600000047000000EA
:1010F000480000004D6561737572656D656E742002
:101100006973204572726F722121210D0A0000005F
:101110002DE9F0410F48006888B90F4800680128A0
:101120000DD10E480068FFF730FB06460C4A0D4B08
:10113000FFF7CCF90446FFF76BFB08490860002174
:1011400006480068FFF780FB02D2012001490860D1
:10115000BDE8F081B8000020BC000020B4000020F1
:101160007B14AE47E17A843F7047704710B5012089
:1011700002490870102000F003F810BD3C04002064
:101180000149086070470000140401402DE9F04156
:10119000024600250026002000230024002791F8A5
:1011A00003C00CF00F0591F803C00CF0100CBCF15B
:1011B000000F03D091F802C04CEA050591F800C079
:1011C000BCF1000F31D0146800202BE04FF0010C6F
:1011D0000CFA00F3B1F800C00CEA03069E4220D1DD
:1011E00083004FF00F0C0CFA03F7BC4305FA03FC25
:1011F0004CEA040491F803C0BCF1280F06D14FF06B
:10120000010C0CFA00FCC2F814C00AE091F803C00B
:10121000BCF1480F05D14FF0010C0CFA00FCC2F8EC
:1012200010C0401C0828D1D31460B1F800C0BCF134
:10123000FF0F34DD546800202EE000F1080C4FF061
:10124000010808FA0CF3B1F800C00CEA03069E424C
:1012500021D183004FF00F0C0CFA03F7BC4305FAC1
:1012600003FC4CEA040491F803C0BCF1280F05D13B
:1012700000F1080C08FA0CF8C2F8148091F803C0C9
:10128000BCF1480F07D100F1080C4FF0010808FA33
:101290000CF8C2F81080401C0828CED35460BDE87A
:1012A000F0810246002093680B400BB1012000E062
:1012B00000207047416170470161704700BFFEE741
:1012C00008B50121102000F0BBFE4FF40050ADF82E
:1012D000000010208DF8030003208DF802006946FD
:1012E0000E48FFF753FF4FF48040ADF80000694609
:1012F0000A48FFF74BFF4FF40040ADF80000694685
:101300000648FFF743FF4FF400510448FFF7D2FFB0
:101310004FF480410148FFF7CDFF08BD00100140A8
:1013200010B53F48006800283AD135E000203D491B
:1013300008702DE03C4800883C4908603948007836
:1013400000EB40003A4901EB8000806837490968AA
:10135000081A3449097801EB4101354A02EB810151
:10136000898888420FD3314800682E49097801EBFB
:10137000410102EB810188602A49097801EB4101B2
:1013800052F82100804727480078401C2549087002
:10139000244800780428CDD3264800680028C5D00A
:1013A0001F48006801283AD135E000201D49087027
:1013B0002DE01D4800881D4908601A48007800EBA0
:1013C00040001B4901EB8000806818490968081A31
:1013D0001449097801EB4101154A02EB8101898822
:1013E00088420FD3114800680E49097801EB41018A
:1013F00002EB810188600B49097801EB410152F849
:101400002100804707480078401C064908700548BD
:1014100000780428CDD3084800680028C5D010BD46
:10142000BC000020F000002018000020F400002084
:10143000C0000020A4000020B800002008B5012151
:10144000082000F0FDFD4FF48070ADF8000003208F
:101450008DF8020014208DF8030069460D48FFF74F
:1014600095FE4FF480710B48FFF726FF4FF4007094
:10147000ADF8000003208DF8020014208DF8030061
:1014800069460448FFF782FE4FF400710148FFF7F8
:1014900013FF08BD000C014010B54FF480711248D5
:1014A000FFF708FF1048001D006820F0F0000E490B
:1014B000091D08600846006840F0300008604915C2
:1014C0000948FFF7F7FE00F011F84FF48071064865
:1014D000FFF7F2FE00F00AF84FF480710248FFF7C0
:1014E000E9FE00F003F810BD000C014010B5022029
:1014F00000F018FF10BD000010B54FF480711248C5
:10150000FFF7D8FE1048001D006820F0F0000E49DB
:10151000091D08600846006840F030000860491561
:101520000948FFF7C9FEFFF7E1FF4FF48071064855
:10153000FFF7C2FEFFF7DAFF4FF480710248FFF7B2
:10154000B9FEFFF7D3FF10BD000C014070B5054692
:1015500000241E48006820F0F0001C49086008467E
:10156000006840F080000860002624E06006040E59
:101570004FF480711548001FFFF79CFEFFF7B6FF80
:101580004FF480711148001FFFF796FEFFF7AEFF82
:101590004FF400710D48001FFFF783FE08B1601C77
:1015A000C4B24FF480710948001FFFF783FEFFF7B4
:1015B0009DFF701CC6B2082ED8DB15B9FFF79CFF43
:1015C00001E0FFF769FF204670BD0000040C0140F8
:1015D00070B504462148006820F0F0001F490860FB
:1015E0000846006840F03000086089151B48001F5D
:1015F000FFF760FE00252DE004F0800030B14FF4CD
:1016000000711648001FFFF757FE05E04FF4007108
:101610001248001FFFF74EFEFFF768FF4FF480717E
:101620000E48001FFFF748FEFFF760FF4FF4807180
:101630000A48001FFFF73EFE072D05D14FF4007149
:101640000648001FFFF738FE6006040EFFF74EFF46
:10165000681CC5B2082DCFDB70BD0000040C014032
:1016600010B51448006820F0F000124908600846E0
:10167000006840F03000086049150E48001FFFF771
:101680001BFE4FF480710B48001FFFF715FEFFF79C
:101690002DFF4FF400710748001FFFF70BFEFFF707
:1016A00025FF4FF480710348001FFFF703FEFFF78B
:1016B0001DFF10BD040C014010B51348006820F058
:1016C000F000114908600846006840F030000860EA
:1016D00089150D48001FFFF7EDFD4FF400710A4812
:1016E000001FFFF7E7FDFFF701FF4FF48071064889
:1016F000001FFFF7E1FD4FF400710348001FFFF7E3
:10170000DBFDFFF7F3FE10BD040C014010B51748D8
:10171000006820F0F000154908600846006840F0B5
:101720008000086049151148001FFFF7C5FDFFF74D
:10173000DDFE4FF480710D48001FFFF7BDFDFFF780
:10174000D5FE4FF400710948001FFFF7AAFD08B14C
:10175000012400E000244FF480710448001FFFF7CB
:10176000A9FDFFF7C3FE204610BD0000040C014098
:1017700010B5FFF763FE80216B2000F0D7F86420DE
:1017800000F0B2FD00216B2000F0D0F8032000F043
:101790008BF8002000F080F8322000F0AAF8002139
:1017A000382000F0C3F800216A2000F0BFF80021C3
:1017B000232000F0BBF88021372000F0B7F8752017
:1017C00000F013F80446682C0BD101216B2000F0C7
:1017D000ADF800216C2000F0A9F8322000F089F863
:1017E00001E0012010BD0020FCE770B50446FFF7C2
:1017F00037FFD020FFF7ECFEFFF788FF2046FFF70A
:10180000E7FEFFF783FFFFF72BFFD120FFF7E0FE96
:10181000FFF77CFF0020FFF799FE0546FFF74CFF1E
:10182000284670BD2DE9F04106460F4614461D4678
:10183000FFF716FF002141EA4601C8B2FFF7C8FED4
:10184000FFF764FF20B1FFF737FF0120BDE8F0810B
:101850003846FFF7BDFEFFF759FFFFF701FF0121F3
:1018600001EB4601C8B2FFF7B3FEFFF74FFF0DE0F3
:10187000012C04D10020FFF769FE287003E001204D
:10188000FFF764FE2870601EC4B26D1C002CEFD1FF
:10189000FFF712FF0020D9E710B50446E006010E5D
:1018A0001C2000F043F810BD10B50446E006010E00
:1018B0001B2000F03BF810BD70B504460025BC2C81
:1018C00001DB012510E0622C01DB02250CE02A2C53
:1018D00001DB032508E0142C01DB042504E00A2CBD
:1018E00001DB052500E0062529461A2000F01EF838
:1018F00070BD70B50446B4F57A7F01DD4FF47A749B
:10190000042C00DA04244FF47A7090FBF4F0401EAB
:10191000C5B22946192000F009F80546264604EB11
:10192000D671C1F34F00FFF7C7FF70BD70B5054614
:101930000C46FFF795FED020FFF74AFEFFF7E6FEC4
:1019400018B1FFF7B9FE012070BD2846FFF740FE31
:10195000FFF7DCFE2046FFF73BFEFFF7D7FE18B18E
:10196000FFF7AAFE0120EFE7FFF7A6FE0020EBE756
:101970002DE9F04105460E4617469846FFF770FEE2
:10198000002141EA4501C8B2FFF722FEFFF7BEFE83
:1019900020B1FFF791FE0120BDE8F0813046FFF74E
:1019A00017FEFFF7B3FE00240CE018F80400FFF761
:1019B0000FFEFFF7ABFE18B1FFF77EFE0120EBE74D
:1019C000601CC4B2BC42F0DBFFF776FE0020E3E708
:1019D00000BFFEE708B50121082000F031FB4FF4FD
:1019E0007040ADF8000010208DF8030003208DF842
:1019F000020069460748FFF7C9FB00200649086056
:101A00000649C1F8B0010449091D08600349C1F83D
:101A1000B80108BD000C0140B48121420080214280
:101A20007047000070B5002100230F22C47804B372
:101A3000154C246804F4E064C4F5E064210AC1F1A3
:101A40000403CA40447804FA03F184781440214323
:101A500009010E4C0678A155047804F01F050124F5
:101A6000AC4005786D11AD0005F1E025C5F80041E9
:101A700009E0047804F01F050124AC40044D067809
:101A8000761145F8264070BD0CED00E000E400E062
:101A900080E100E070B5002418E004F1B0000021FE
:101AA00000F05AFA0021084600F056FA00211020F2
:101AB00000F052FA002505E00121002000F04CFA68
:101AC000681CC5B2802DF7DB601CC4B2082CE4DBB7
:101AD00070BD000008B50121082000F0B1FA022015
:101AE000ADF8000010208DF8030003208DF80200EF
:101AF00069460C48FFF74AFB02210A48FFF7DCFB66
:101B00000120ADF8000010208DF8030003208DF8AF
:101B1000020069460348FFF739FB01210148FFF73E
:101B2000CBFB08BD000C014010B502210748FFF7B0
:101B3000C3FB01210548FFF7BFFB01210348FFF765
:101B4000B9FB02210148FFF7B5FB10BD000C0140B5
:101B500010B502210548FFF7AFFB01210348FFF74D
:101B6000A9FB01210148FFF7A7FB10BD000C0140B4
:101B700010B502210348FFF79FFB02210148FFF740
:101B800099FB10BD000C014010B5FFF7A3FF4FF407
:101B9000487000F0A9FB0021AE2000F0DDF9002123
:101BA000084600F0D9F90021102000F0D5F90021F5
:101BB000402000F0D1F90021B02000F0CDF9002143
:101BC000812000F0C9F90021FF2000F0C5F90021B3
:101BD000A12000F0C1F90021A62000F0BDF90021EC
:101BE000A82000F0B9F900213F2000F0B5F900214C
:101BF000C82000F0B1F90021D32000F0ADF9002198
:101C0000084600F0A9F90021D52000F0A5F900212F
:101C1000802000F0A1F90021D82000F09DF90021DA
:101C2000052000F099F90021D92000F095F9002154
:101C3000F12000F091F90021DA2000F08DF9002167
:101C4000122000F089F90021DB2000F085F9002145
:101C5000302000F081F900218D2000F07DF9002175
:101C6000142000F079F90021AF2000F075F910BDC3
:101C700070B504460D4605F1B000002100F06CF986
:101C8000102141EA1410002100F066F904F00F0061
:101C9000002100F061F970BD2DE9F04707460E46BE
:101CA0009046994600250024A8F12000C5B27F2F58
:101CB00002DD0027B01CC6B2B9F1100F24D13146A5
:101CC0003846FFF7D5FF002408E004EB0511194A58
:101CD000505C012100F040F9601CC4B2082CF4DB18
:101CE000701CC1B23846FFF7C3FF002409E004EBC3
:101CF000051108310F4A505C012100F02DF9601CDC
:101D0000C4B2082CF3DB12E031463846FFF7B0FFCF
:101D100000240AE005EB4501074A02EB4101085D9A
:101D2000012100F019F9601CC4B2062CF2DBBDE8F9
:101D3000F08700009CA2000874A000082DE9FF5F56
:101D400086B0074614461D46DDE9148A169E01201A
:101D500005900022134620462946FEF729FD04D2AD
:101D60004FF0FF30059085F0004520462946FEF7EC
:101D7000EDFC814651460A2007F019FE8346FEF726
:101D8000ABFC22462B46CDE90001FEF7A5FBCDE9D1
:101D90000201FEF7DBFC834651460A2007F007FEEE
:101DA00009FB10B004900096059800FB09F2434629
:101DB0003846079900F01FF8B34606EBDB714A106E
:101DC00008F1010102FB0171C8B233462E220799C6
:101DD000FFF762FF06EBDB714A1008F1020102FB1C
:101DE0000171C8B253460096049A079900F070F842
:101DF0000AB0BDE8F09F2DE9FF5F804616461F46FA
:101E00000E9D4FF0000A002E07DA76422B462D2257
:101E100040460199FFF740FF05E02B46202240464F
:101E20000199FFF739FF012433E0381BC1B20A20C2
:101E300007F0BDFDB6FBF0F00A21B0FBF1F201FBAB
:101E40001209BAF1000F13D1BC4211DAB9F1000F37
:101E50000CD1AB4605EBDB71491001FB0481C8B224
:101E60002B4620220199FFF717FF10E04FF0010ADF
:101E7000AB4605EBDB71491001FB0481C8B209F1E7
:101E80003001CAB22B460199FFF706FF00BF601C64
:101E9000C4B2BC42C9DDBDE8FF9F2DE9F041054653
:101EA0000E4614461F460EE022783B463146284631
:101EB000FFF7F2FE05F10800C5B2782D02DD00251E
:101EC000B01CC6B2641C20780028EDD1BDE8F081BA
:101ED0002DE9FF5F074691461E460E9D4FF0000A12
:101EE000002435E0301B401EC1B20A2007F05FFD20
:101EF000B9FBF0F00A21B0FBF1F201FB1208BAF1D4
:101F0000000F14D1701EA04211DDB8F1000F0CD1EA
:101F1000AB4605EBDB71491001FB0471C8B22B46DF
:101F200020220199FFF7B8FE10E04FF0010AAB46FE
:101F300005EBDB71491001FB0471C8B208F13001F7
:101F4000CAB22B460199FFF7A7FE00BF601CC4B2BE
:101F5000B442C7DBBDE8FF9F70B504460D461DB116
:101F6000E0B200F045F802E0E0B200F02BF870BDFE
:101F70002DE9F04105462C4602211148FFF79AF958
:101F8000002619E0274607F08007802F04D10121A1
:101F90000B48FFF791F903E001210948FFF78AF99F
:101FA0006006040E02210648FFF786F90221044864
:101FB000FFF780F9701CC6B2082EE3DBBDE8F081A4
:101FC000000C014010B50446FFF7AEFD7820FFF786
:101FD000CFFFFFF7CDFD0020FFF7CAFFFFF7C8FDD9
:101FE0002046FFF7C5FFFFF7C3FDFFF7B1FD10BDAA
:101FF00010B50446FFF798FD7820FFF7B9FFFFF70B
:10200000B7FD4020FFF7B4FFFFF7B2FD2046FFF712
:10201000AFFFFFF7ADFDFFF79BFD10BD7047000060
:1020200029B1064AD2690243044BDA6104E0034A4B
:10203000D2698243014BDA61704700000010024010
:1020400029B1064A92690243044B9A6104E0034AAB
:1020500092698243014B9A61704700000010024070
:1020600030B500210022002400232D4D6D6805F0BD
:102070000C0121B1042905D0082923D105E0294DFF
:10208000056022E0274D05601FE0254D6D6805F4D1
:102090007012234D6D6805F48034022505EB9242E1
:1020A0001CB9214D554305600BE01D4D6D6805F4CD
:1020B00000351DB11C4D5543056002E0194D5543D7
:1020C000056002E0174D056000BF00BF144D6D684C
:1020D00005F0F0010909154D6B5C0568DD404560B0
:1020E0000F4D6D6805F4E061090A104D6B5C4568A1
:1020F000DD4085600A4D6D6805F46051C90A0B4DDD
:102100006B5C4568DD40C560054D6D6805F4404178
:10211000890B074D6B5CC568B5FBF3F5056130BDF8
:102120000010024000127A0000093D00000000206B
:1021300010000020704710B500F002F810BD00003C
:102140000CB50020019000903348006840F48030C6
:102150003149086000BF3048006800F4003000904A
:102160000198401C0190009818B90198B0F5A06F33
:10217000F1D12948006800F4003010B1012000902E
:1021800001E0002000900098012843D12348006816
:1021900040F01000214908600846006820F0030064
:1021A00008600846006840F0020008601A4840686D
:1021B000194948600846406848600846406840F44D
:1021C000806048600846406820F47C1048600846FB
:1021D000406840F4E81048600846006840F08070AD
:1021E000086000BF0C48006800F000700028F9D0BB
:1021F0000948406820F003000749486008464068E5
:1022000040F00200486000BF0348406800F00C0046
:102210000828F9D10CBD0000001002400020024047
:1022200000B503460A46002B07DA0120164908606C
:1022300000201649C1F8B40106E0002012490860E8
:1022400001201249C1F8B401184607F0A9FB104952
:102250000880002A08DA00200B49083108600120B4
:102260000A49C1F8BC0107E00120074908310860AC
:1022700000200649C1F8BC01104607F091FB044953
:102280000C31088000BD0000B08121420080214255
:10229000342C014030B50146B1F1807F01D30120DB
:1022A00030BD21F07F40401E4FF0E02250615017BA
:1022B0000F22002807DA13071D0E094B00F00F0448
:1022C000241F1D5503E013071C0E064B1C5400BFB2
:1022D00000204FF0E0229061072010610020DFE72E
:1022E00018ED00E000E400E070B504460C48FFF78C
:1022F000D1FF002508E000BF4FF0E020006900F4A6
:1023000080300028F8D06D1CA542F4D34FF0E020B7
:10231000006920F001004FF0E021086170BD00006D
:102320004019010070B504464820FFF7B3FF0025AF
:1023300008E000BF4FF0E020006900F48030002882
:10234000F8D06D1CA542F4D34FF0E020006920F0D6
:1023500001004FF0E021086170BD704710B51348CF
:10236000006840F0010011490860084640681049C3
:1023700008400E494860084600680E4908400B496D
:1023800008600846006820F480200860084640681D
:1023900020F4FE0048604FF41F008860FFF7CBFE7A
:1023A0004FF000600449086010BD000000100240BA
:1023B0000000FFF8FFFFF6FE08ED00E01FB5044641
:1023C00001210220FFF72CFEA0B2ADF80800472043
:1023D000ADF804000020ADF80A00ADF8060001A930
:1023E0000F4800F069F9012211460D4800F0B9F8D4
:1023F00001210B4800F086F81D208DF80000032015
:102400008DF8010001208DF802008DF80300684668
:10241000FFF708FB0121024800F077F81FBD00001C
:102420000004004030B589B005460C460121C802C1
:10243000FFF706FE01210420FFF702FE4FF41060B3
:10244000ADF8200018208DF8230003208DF822001D
:1024500008A91C48FEF79AFEADF81850ADF81440D4
:102460000020ADF81A00ADF8160005A9164800F0D6
:1024700023F96020ADF804000120ADF8060000202B
:10248000ADF80A00ADF80C0001A90F4800F072F891
:1024900001A90D4800F0C4F801210B4800F041F8F3
:1024A0000821094800F0B2F80821074800F0F6F8C2
:1024B0000121054800F01AF80121034800F025F831
:1024C00009B030BD00080140002C014010B50121C9
:1024D000054800F035F808B1FEF7BEFC01210248BE
:1024E00000F010F810BD00000004004021B1028887
:1024F00042F08002028004E002884FF67F731A40A7
:1025000002807047CA430282704721B1028842F0BC
:102510000102028004E002884FF6FE731A40028036
:10252000704731B1B0F8442042F40042A0F8442092
:1025300005E0B0F84420C2F30E02A0F84420704732
:1025400030B50246002000230024158A05EA010365
:10255000958905EA010413B10CB1012000E00020C7
:1025600030BD1AB183890B43838102E083898B4399
:102570008381704770B5002400220023058C4FF63C
:10258000FE7635400584028C8388048B4FF68F7568
:102590002C40B51E2C400D882C43751E2A400D89F9
:1025A0002A434D882A43144DA8420BD0134DA8420C
:1025B00008D0134DA84205D0124DA84202D0124DAA
:1025C000A84213D14FF6F7752A404D892A434FF69A
:1025D000FB752A408D882A434FF6FF652B404FF646
:1025E000FF552B408D892B43CD892B43838004835A
:1025F000CD888586028470BD002C014000340140E6
:102600000040014000440140004801400A460021CA
:10261000018B4FF6F7731940114301837047000097
:1026200070B5002200230024058C4EF6FF7635405D
:102630000584038C8488828B48F6FF752A404FF608
:10264000FF452A400D884FF6FF7606EA05252A4306
:102650004DF6FF752B400D8906EA05352B434D8855
:1026600006EA05352B430B4DA84202D00A4DA8427D
:1026700008D14BF6FF752C408D894FF6FF7606EAA0
:1026800085152C4384808283CD88A0F84050038434
:1026900070BD0000002C0140003401400A460021BA
:1026A000818B4FF2FF7319404FF6FF7303EA022349
:1026B0001943818370470000002202881D4B984215
:1026C0000ED01D4B98420BD0B0F1804F08D01B4B61
:1026D000984205D01A4B984202D01A4B984204D126
:1026E0004FF68F731A404B881A43174B984207D006
:1026F000164B984204D04FF6FF431A40CB881A433A
:1027000002808B8883850B8803850A4B98420BD007
:10271000094B984208D00E4B984205D00D4B984279
:1027200002D00D4B984201D10B7A0386012383829C
:1027300070470000002C01400034014000040040BC
:1027400000080040000C0040001000400014004051
:102750000040014000440140004801402DE9FE4393
:10276000324A3349334806F027F833492F48006886
:10277000FDF743FD3149086000243BE02B4A2C491A
:102780002C4806F019F8294801682C480068FDF724
:1027900086FD04462046FDF7F8FF05460022134655
:1027A000FEF71EF806D22648006841422448006819
:1027B000FFF736FD2046FDF7E8FF054600221346E9
:1027C000FDF7F6FF05D21E48016800684042FFF79A
:1027D00027FD16480068FDF7D8FF05460B460C207C
:1027E00002210322CDE9002102902A460021322055
:1027F000FFF7A4FA0D48016810480068FDF74FFD87
:102800008146FDF776FF064607F0CAF80546FDF754
:1028100052FF074600220B4BFDF7E2FFAED300212B
:102820000846FFF7FDFCBDE8FE83000034000020F1
:10283000300000202C0000200000B4428C0000205A
:10284000000100200000F03F2DE9FE43324A3349E9
:10285000334805F0B1FF33492F480068FDF71FFDED
:102860003149086000243BE02B4A2C492C4805F0F4
:10287000A3FF294801682C480068FDF710FD0446B5
:102880002046FDF782FF054600221346FDF7A8FF0C
:1028900006D226480068414224480068FFF7C0FC81
:1028A0002046FDF772FF054600221346FDF780FF24
:1028B00005D21E48016800684042FFF7B1FC164887
:1028C0000068FDF762FF05460B460C20022103223B
:1028D000CDE9002102902A4600213220FFF72EFA8E
:1028E0000D48016810480068FDF7D9FC8146FDF7E6
:1028F00000FF064607F054F80546FDF7DCFE0746E4
:1029000000220B4BFDF76CFFAED300210846FFF70A
:1029100087FCBDE8FE83000034000020300000206A
:102920002C0000200000B4428C0000200001002098
:102930000000F03F10B540F225513F4800F0A9F8E3
:10294000002877D03C4800F05FF93C490870084601
:10295000007841286ED13A480068032834D14FF4FA
:1029600080413848FEF7A6FC4FF400513548FEF789
:10297000A3FC41F28830FFF7B7FC4FF40051314817
:10298000FEF798FC3048006841422F4800684042FA
:10299000FFF746FC40F2C620FFF7A6FCFFF7DEFE7D
:1029A000294801680068FFF73BFC4FF4AF60FFF770
:1029B0009BFC00210846FFF733FC4FF400412148FF
:1029C000FEF77AFC00BFFEE74FF480411D48FEF79A
:1029D00071FC4FF400511B48FEF76EFC41F2EC30E5
:1029E000FFF782FC4FF400511648FEF763FC1648CF
:1029F00000684142144800684042FFF711FC40F271
:102A0000EE20FFF771FCFFF71FFF0F480168006819
:102A1000FFF706FC40F24C40FFF766FC0021084639
:102A2000FFF7FEFB4FF400410648FEF745FC00BFF0
:102A3000FEE7FFE710BD000000380140F80000206D
:102A4000A800002000100140FC00002010B540F25A
:102A50002551024800F01DF810BD0000004800405C
:102A600021B1828942F40052828104E082894DF6CC
:102A7000FF731A408281704702460020B1F5007F43
:102A800000D100BF13880B400BB1012000E00020F3
:102A9000704770B50246002400230025002040F650
:102AA0006A16B14200D100BFC1F3421501F01F0305
:102AB000012606FA03F3012D02D19689334006E080
:102AC000022D02D1168A334001E0968A33400C125F
:102AD000012606FA04F41688344013B10CB1012023
:102AE00000E0002070BDF0B503460024002600255C
:102AF000002040F66A17B94200D100BF1846C1F362
:102B0000421401F01F06012707FA06F5012C01D136
:102B10000C3004E0022C01D1103000E014301AB166
:102B200007682F43076002E00768AF430760F0BD06
:102B30002DE9F04786B005460E460024A24600BFA8
:102B4000A1460027B08900B100BF2F462C8A4CF661
:102B5000FF700440F08804432C82AC894EF6F310D9
:102B60000440B08831890843718908430443AC812B
:102B7000AC8A4FF6FF400440B0890443AC8201A800
:102B8000FFF76EFA1F48874202D1DDF810A001E07E
:102B9000DDF80CA0A88900F4004040B10AEBCA009F
:102BA00000EB0A1031684900B0FBF1F807E00AEBCE
:102BB000CA0000EB0A1031688900B0FBF1F864200C
:102BC000B8FBF0F004012009642101FB1089A889F9
:102BD00000F4004040B1322000EBC900B0FBF1F03E
:102BE00000F00700044308E0322000EB09106421E4
:102BF000B0FBF1F000F00F0004432C8106B0BDE8FB
:102C0000F08700000038014001468888C0F30800C2
:102C10007047C1F308028280704700BFFEE70000E2
:102C200010B586B0044601210420FFF709FA0121FE
:102C30008803FFF705FA4FF40070ADF81400182070
:102C40008DF8170003208DF8160005A91C48FEF723
:102C50009DFA4FF48060ADF8140004208DF8170041
:102C600005A91748FEF792FA01940020ADF8080074
:102C7000ADF80A00ADF80C00ADF810000C20ADF86E
:102C80000E0001A90F48FFF753FF27208DF8000021
:102C900000208DF8010003208DF8020001208DF83E
:102CA00003006846FEF7BEFE012240F225510548AA
:102CB000FFF719FF01210348FFF7D2FE06B010BD50
:102CC000000801400038014010B586B004460121DB
:102CD0000420FFF7B5F901218803FFF7B1F94FF49C
:102CE0000070ADF8140018208DF8170003208DF83F
:102CF000160005A91C48FEF749FA4FF48060ADF8AC
:102D0000140004208DF8170005A91748FEF73EFAB5
:102D100001940020ADF80800ADF80A00ADF80C00F1
:102D2000ADF810000C20ADF80E0001A90F48FFF718
:102D3000FFFE25208DF8000000208DF80100032003
:102D40008DF8020001208DF803006846FEF76AFE48
:102D5000012240F225510548FFF7C5FE0121034835
:102D6000FFF77EFE06B010BD0008014000380140AC
:102D70002DE9FC4106460F460024DA20855D012D31
:102D800003D0022D01D0032D2ED16B4601AA0121C3
:102D9000304600F0D7F904460198B0F57F0F03D80C
:102DA0000098B0F57F0F1FD9F4B92FB11049304604
:102DB00002F09AFA044617E00422FF21304601F09F
:102DC0001CF8044300227021304601F016F8044339
:102DD0000022FF21304601F010F804430022802138
:102DE000304601F00AF804432046BDE8FC810000AB
:102DF0002C020020F8B506460F460024002500BF2F
:102E000001220B21304600F0F8FF044600220B217E
:102E1000304600F0F2FF04436A461321304600F0CA
:102E20001AFC0443681CC5B29DF8000000F00700BE
:102E300018B1032D01DA002CE2D0032D01DB6FF075
:102E40000B042046F8BD000070B592B00546002482
:102E50000123FE228921284600F0A6FF04462CB952
:102E600000228821284600F0C8FF04460021F020F7
:102E700041554FF47A70A5F852014FF4C870A5F887
:102E800054015A48C5F858015948C5F8D400296278
:102E900002A9284600F0BEF8044654B900208DF877
:102EA00008008DF80900402202A905F11000FDF785
:102EB0006AF9642005F59A7528804FF4617068807E
:102EC0004FF4FA70A8804FF4206028810120287701
:102ED000A5F59A7501228021284600F08EFF044353
:102EE0000122FF21284600F088FF044300221146FA
:102EF000284600F082FF044301AA9121284600F0F1
:102F0000AAFB04439DF8040085F83A010122002140
:102F1000284600F072FF04430022FF21284600F0FB
:102F20006CFF044300228021284600F066FF044322
:102F3000002609E034B9B1B20122284600F0C6FCEF
:102F4000044300E002E0761C062EF3DB00BF2CB940
:102F500000220221284600F0B9FC04462CB90022C8
:102F60000321284600F0B2FC04462CB900220421BB
:102F7000284600F0ABFC04462CB900220521284667
:102F800000F0A4FC044634B94FF490120021284606
:102F900000F0FDFC044634B94FF48042012128467C
:102FA00000F0F5FC044634B94FF40C120221284617
:102FB00000F0EDFC04462CB900220321284600F065
:102FC000E6FC04465CB9FF2085F83001FF220121B0
:102FD000284600F012FF0446012085F8320114B99A
:102FE000002185F81511204612B070BD856B0100D7
:102FF000A470090070B504460D46002629462046F7
:1030000001F04EFA0646304670BD02460020137CA1
:103010000B7070472DE9F04107460D460024294604
:103020003846FFF7F2FF04462CB905F1080138468F
:1030300000F051F804460CB9002028732CB905F1B2
:103040001001384600F085FA04462CB905F1140148
:10305000384600F037F90446E4B9002617E04CB9C9
:1030600005F1240000EB8602B1B2384600F099F871
:10307000044300E00DE044B905F118008219B1B233
:10308000384600F080F8044300E002E0761C062E8B
:10309000E5DB00BF2CB905F13C01384600F034FAFD
:1030A000044624B9291D384600F001F9044620469B
:1030B000BDE8F08170B506460C4600252246092180
:1030C000304600F0C8FA05461DB9207800F001002E
:1030D0002070284670BD7CB506460C46002501AA26
:1030E000F821304600F0E3FA05462DB96A4604217E
:1030F000304600F0C6FA054655B9BDF8040028B1BF
:10310000BDF804100098B0FBF1F020602168B161B7
:1031100028467CBDF8B505460C4600266A461321B4
:10312000284600F098FA06469DF8000000F00700D7
:1031300020609DF8000000F0180008B16FF005064F
:103140003046F8BD2DE9F8430746884614461D462B
:1031500000266A460E21384600F0A9FA0646BDF858
:1031600000000005C008206056B96A460C213846A8
:1031700000F09DFA0646BDF800000005C008286072
:103180003046BDE8F88330B503460020062903DB4E
:10319000001F0025157003E003F128056C5C147016
:1031A00030BD2DE9F84305460E4617464FF000089E
:1031B000C146062E2FD2DFE806F00307161A1E1F9F
:1031C0006C6B4FF0000929E06A464421284600F064
:1031D0006EFA8046B8F1000F02D1BDF8000044023B
:1031E0004FF001091AE0EC6B4FF0000916E02C6C6F
:1031F0004FF0000912E000BF6A466421284600F043
:1032000056FA8046B8F1000F02D1BDF80000440222
:103210004FF0000902E06FF0030800BF00BFB8F1F3
:10322000000F16D1B9F1010F12D144B905F13400E4
:1032300050F826403C6000210C38815509E03C6084
:1032400005F1340040F8264001210C38815500E09A
:103250003C604046BDE8F8832DE9FC4105460C463C
:103260000026DA20475D042F0DD169462846FFF776
:1032700051FF06460098042802D10120207013E077
:103280000020207010E001AA1421284600F0E3F984
:1032900006464EB99DF8040000F0010010B101206F
:1032A000207001E0002020703046BDE8FC8170B540
:1032B00004460D4600262946204601F004FC064639
:1032C000304670BD70B504460D460026294620469E
:1032D00001F070FC0646304670BD70B504460D46E0
:1032E00000262946204601F091FC0646304670BD76
:1032F00070B504460D4600262946204601F006FF1B
:103300000646304670BD2DE9F04F93B005460C4699
:103310004FF000080C230AAA1421284600F0DDF91A
:103320008046B8F1000F7DD10020A07520609DF887
:1033300033009DF8321000EB012087B2002060605E
:103340009DF82F009DF82E1000EB01200004C60907
:10335000E6609DF831009DF8301000EB012080B24E
:103360000F900F98400220619DF82B009DF82A10C5
:1033700000EB01201FFA80F9A4F814909DF82800B2
:103380001290B5F852010D9095F831B10D98B0F545
:103390007A7F2AD00D98784300F5FA704FF47A714D
:1033A00090FBF1F087B2288C80B20E90287F1090AD
:1033B0001098D0B10E9800FB09F0A6EB202040B980
:1033C000BBF1000F02D042F2B82A0DE048F6E02A25
:1033D0000AE007FB06F10E9800FB09F0A6EB20209F
:1033E000B1FBF0F01FFA80FA5746BBF1000F05D091
:1033F000B8102081B807000EE07502E02781002098
:10340000E07511A84B463246CDE900402846129996
:1034100001F062FD40EA0808B8F1000F02D19DF802
:1034200044002076B8F1000F20D11C2205F1500194
:1034300003A8FCF7A8FE2089ADF81400E07D8DF804
:1034400023006089ADF8160060680490E06806907B
:1034500020690790A08AADF82000207E8DF8240016
:103460001C2203A905F15000FCF78DFE404613B065
:10347000BDE8F08FF8B506460C4600250020009008
:103480006A460121304600F0E6F805463DB923467C
:103490009DF800200021304606F030FB05463DB97E
:1034A000A31C9DF800200121304606F027FB0546AD
:1034B0003DB9631C9DF800200221304606F01EFB3A
:1034C00005463DB9E31C9DF800200321304606F077
:1034D00015FB05463DB9231D9DF80020042130460B
:1034E00006F00CFB05462846F8BD2DE9F0410446E0
:1034F0000D461646002732462946204601F0A1FE19
:1035000007463846BDE8F081F8B506460C4600256A
:103510006A460121304600F09EF805466DB99DF8D7
:10352000000086F830019DF8000000F0800010B126
:103530000120207001E00020207015B9217886F864
:103540004C102846F8BD10B502460020137F0B70C2
:1035500010BDF8B504460E4600276A4620212046D5
:1035600000F0A5F8074677B9BDF8000020B9256A34
:1035700035600021217706E0BDF80000C500356008
:103580002562012121773846F8BD2DE9F041044636
:103590000D4616460027012332462946204601F0F3
:1035A00077FF07463846BDE8F0812DE9F041044633
:1035B0000D461646002732462946204601F08EFF6A
:1035C00007463846BDE8F08138B50546002469460F
:1035D0002846FFF71AFD044634B99DF8000018B9D3
:1035E000284600F08BFA04461CB9284601F0F1FE8B
:1035F00004462CB99DF8000010B9032085F832016B
:10360000204638BD70B505460E46002400212846E8
:1036100000F090F804461CB92846FFF7D5FF044691
:1036200024B931462846FFF76EFE044624B900212E
:103630002846FFF7DFFB0446204670BD08B501466B
:1036400000200022009202E0009A521C0092009A90
:10365000FA2AF9D308BD2DE9F04704460D4616466F
:10366000002794F85C9132462946484602F0DEF87D
:103670008046B8F1000F01D06FF013073846BDE85F
:10368000F0872DE9F04704460D461646002794F8CA
:103690005C9132462946484602F0D8F88046B8F197
:1036A000000F01D06FF013073846BDE8F0872DE911
:1036B000F04704460D461646002794F85C913246C2
:1036C0002946484602F0F3F88046B8F1000F01D0D1
:1036D0006FF013073846BDE8F0872DE9F04706463E
:1036E000884691461C464FF0000A402C01D36FF0EB
:1036F000030A96F85C71A3B24A464146384602F086
:10370000C2F805460DB16FF0130A5046BDE8F087C8
:103710002DE9F04105460C460026274604EBD770FC
:10372000C0F347028A21284600F067FB0646304670
:10373000BDE8F0810246002003290BD003DC39B13B
:1037400001290BD105E0142905D0152906D103E084
:1037500000BF00BF00BF00BF117402E06FF00700A0
:1037600000BF00BF70472DE9F047804689461746E5
:103770001E46DDF820A00024B9F1000F02D06FF042
:103780000904A0E0142F0CD1BAF1000F01D11025CB
:1037900000E001252A468421404600F02EFB044625
:1037A00091E0152F5AD10122FF21404600F025FB60
:1037B000044300221146404600F01FFB0443002250
:1037C000FF21404600F019FB0443012280214046BE
:1037D00000F013FB044302228521404600F00DFB5C
:1037E00004430422FF21404600F007FB044300226B
:1037F000CD21404600F001FB04431122CC2140467C
:1038000000F0FBFA04430722FF21404600F0F5FADE
:1038100004430022BE21404600F0EFFA0443062292
:10382000FF21404600F0E9FA04430922CC2140463A
:1038300000F0E3FA04430022FF21404600F0DDFAE5
:1038400004430122FF21404600F0D7FA044300223E
:103850001146404600F0D1FA044334E0A4B9052EE5
:103860000ED2DFE806F0030507090B0000250AE089
:10387000012508E0022506E0032504E0042502E016
:103880006FF00A0400BF00BF2CB92A460A21404647
:1038900000F0B3FA044664B9BAF1000F01D1002573
:1038A00000E010252B46EF228421404600F07CFAF0
:1038B000044614B9DA2000F8086024B90021404613
:1038C000FFF798FA04462046BDE8F0872DE9F05F3F
:1038D00004460D4616464FF00009CB460027BA466F
:1038E000062D02DB6FF0030941E02EB94FF0000B0B
:1038F00000274FF0010A06E004F1340050F825B02B
:103900004FF0000A0127062D2DD2DFE805F003064F
:103910000E1114202820075528E0CBF34F22442114
:10392000204600F080FA814620E084F82A701DE0ED
:1039300084F82B701AE04FEA4A604FEA1068434659
:10394000FE226021204600F02FFA81460EE04FEA69
:103950000A704FEA10684346EF226021204600F0CB
:1039600023FA814602E06FF0030900BF00BFB9F1FE
:10397000000F09D126B9002104F12800415503E0C8
:10398000012104F1280041554846BDE8F09F2DE98A
:10399000F04105460E461446002705F1280010F8B0
:1039A0000680B8F1000F03D10C3040F8264026E025
:1039B000062E1BD2DFE806F003050D0F11126C6313
:1039C00017E0C4F34F224421284600F02CFA0746A2
:1039D0000FE0EC630DE02C640BE000BFC4F34F225A
:1039E0006421284600F01FFA074602E06FF0030743
:1039F00000BF00BF1FB905F1340040F8264038462B
:103A0000BDE8F08170B504460D46002629462046E3
:103A100001F0BAFF0646304670BD2DE9F84307466F
:103A20000D46904600260020009000246A460121A1
:103A30003846FFF710FE06469DF80040002E36D1AE
:103A4000B8F1010F19D1052D13D2DFE805F00306F7
:103A5000090C0F0044F010040EE044F028040BE0C1
:103A600044F0040408E044F0400405E044F080041D
:103A700002E06FF0030600BF19E0052D13D2DFE866
:103A800005F00306090C0F0004F0EF040EE004F04B
:103A9000D7040BE004F0FB0408E004F0BF0405E0E9
:103AA00004F07F0402E06FF0030600BF00BF9DF842
:103AB0000000844210D02EB922460121384600F081
:103AC0009CF906460EB987F830412EB9D7F8149004
:103AD00049463846FFF796FF3046BDE8F8832DE9A2
:103AE000F04104460D461646002732462946204638
:103AF00002F03EF807463846BDE8F0812DE9FC416A
:103B000006460024012701A93046FFF77EFA01226C
:103B10008021304600F071F904460122FF21304631
:103B200000F06BF9044600221146304600F065F9BA
:103B3000044696F83A219121304600F05EF9044699
:103B400001220021304600F058F904460022FF21EE
:103B5000304600F052F9044600228021304600F041
:103B60004CF904469DF8040020B1012823D0032815
:103B700043D131E001220021304600F03EF90446F5
:103B80000097BCB9002500BF2DB16A460021304620
:103B9000FFF761FD04466D1C9DF800003840B842F7
:103BA00003D114B9B5F5FA6FEED3B5F5FA6F01D3B9
:103BB0006FF0060424E024B901213046FFF7D8F85D
:103BC000044602220021304600F017F9044614B9D9
:103BD000042086F8320113E024B901213046FFF7B2
:103BE000C7F8044604220021304600F006F90446D6
:103BF00014B9042086F8320102E06FF0070400BF18
:103C000000BF2046BDE8FC812DE9F04397B0054692
:103C10000024402107A8FCF7CFFA00200690059069
:103C2000814600270490039000260121284600F0D9
:103C3000A5FC044695F8137195F81461012E05DC76
:103C400001D1202F02D846B90C2F06D904AA03A906
:103C5000284601F043FC044605E032463946284632
:103C600001F025FF0446DFF83C814CB995F85091EE
:103C7000B9F1000F02D1D5F84C8101E0DFF82481C1
:103C800024B94146284601F02FFB044644B90020E0
:103C900004230246014600902846FFF764FD0446CF
:103CA0008CB90122FF21284600F0A7F8044606AA95
:103CB00084212846FFF7FBFC04430022FF2128460D
:103CC00000F09BF8044324B9BDF818000001C5F8C2
:103CD000D40024B907A92846FFF79CF904464CB93B
:103CE00005A92846FFF7E6F904461CB99DF814001B
:103CF00085F831012CB9402207A905F11000FCF725
:103D000042FA54B905AA01212846FFF7A4FC04464B
:103D10001CB99DF8140085F830012CB90022114619
:103D20002846FFF77AFE04462CB9002202212846D5
:103D3000FFF773FE044614B9032085F832012CB94D
:103D400002AA00212846FFF7D0FB04461CB99DF8C3
:103D50000810E82041552CB902AA01212846FFF796
:103D6000C4FB04461CB99DF80810E02041552CB94D
:103D700001AA0321284603F0C7FF044614B9E42032
:103D8000019941512CB901AA0421284603F0BCFF36
:103D9000044614B9DC2001994151204617B0BDE812
:103DA000F0830000390100202DE9F84F04468946D0
:103DB00015461E46002794F85CA16A4649465046BF
:103DC00001F034FD8046B8F1000F01D06FF0130709
:103DD00087B99DF800002840304300909DF80020EE
:103DE0004946504602F043F88046B8F1000F01D032
:103DF0006FF013073846BDE8F88F2DE9F047044609
:103E00000D461646002794F85C91324629464846EE
:103E100002F02DF88046B8F1000F01D06FF01307C3
:103E20003846BDE8F0872DE9F04704460D461646B2
:103E3000002794F85C9132462946484602F038F84B
:103E40008046B8F1000F01D06FF013073846BDE887
:103E5000F0872DE9F04705460F4690461C464FF087
:103E60000009CA46402C01D36FF0030995F85C6144
:103E7000A3B242463946304602F006F88246BAF10D
:103E8000000F01D06FF013094846BDE8F08700002D
:103E90002DE9FF4F90B01746DDF8788012200F9083
:103EA0004FF480400E9042200D9006200C90072089
:103EB0000B90002000901098B0F854010A901098D0
:103EC000D0F858010990DDE9091000FB01FA0AF168
:103ED00080004FEA102A0A980AFB00FA00256FB109
:103EE000119880020190019800EB5705B5FBF7F59A
:103EF00005EB45056D4305F50040050C1D9913982C
:103F000048430890089800F50040000C0890089875
:103F10004043089008F50040000C02900298C01C35
:103F20000621B0FBF1F002900298C0EBC0000290B5
:103F30000298B0F5803F02D3374807900DE008F1B2
:103F400003000621B0FBF1F8C8EBC80808F50040F3
:103F5000000C079007984043079040F22710059007
:103F600005984043059041F20410049004980830ED
:103F700000090490DDE90410401A0590059800EB53
:103F8000400000010690069800F50050800B069056
:103F9000DDE9071044181F9804EB50041F98B4FB88
:103FA000F0F4A403069804EB50040698B4FBF0F474
:103FB0006C4304F5FA704FF47A71B0FBF1F424010C
:103FC00004F5FA70B0FBF1F44FF04009B9F1000FBD
:103FD00005D00AEB5900B0FBF9F0039001E0002096
:103FE0000390039801F06AF9834624B10AEB540068
:103FF000B0FBF4F600E00026304601F05FF906461B
:104000002098C0F800B0B34501D920980660009808
:1040100014B0BDE8F08F00000000F0FFE0B50646E8
:1040200040F277634FF4106202FB01F5A5FB030732
:10403000E0BD00002DE9FF4FABB0054688464FF4C8
:1040400048702A904FF4167029904FF4C8102890A9
:1040500041F25C202790B84826904FF4704025909C
:10406000B6482490B64823904FF4004022904FF475
:104070004810219040F27760209000BF286A159088
:104080004FF47A71D8F810004843000C1690D8F815
:104090000C000C900DAA4146284601F0A1F815AA83
:1040A0004146284601F0B0F813904FF47A710D980C
:1040B00000FB01F707F50040070C159848431490E2
:1040C0001498B0F5481F02D94FF448101490139873
:1040D000002849D1DC2040591E90E020405D069028
:1040E0002846069A1E9900F02DF90990E4204059BF
:1040F0001D90E820405D05902846059A1D9900F026
:1041000021F9089003200A900698082801D102207E
:104110000A900A98C002DDE908121144484307904A
:10412000079800F5FA704FF47A71B0FBF1F0079040
:1041300040F27761079848430790079800F5FA70B6
:104140004FF47A71B0FBF1F007900D988030000ABF
:104150000D9007990D9848431F901F988030000AD2
:104160001F900D9800020D90139818B113982FB05E
:10417000BDE8F08F4FB970492D9801600846C5F829
:10418000400100212E980160D4E01F9808B9012059
:104190001F904FF448701B9016980004B0FBF7F680
:1041A0006648864200D906464FF4167046431F996A
:1041B00001EB4101880001F081F840001A90B8F845
:1041C00008005F494843199014984000C0EB07402D
:1041D00000F5FA704FF47A71B0FBF1F012904810CC
:1041E00000EB0740B0FBF1F1119112980002129020
:1041F000DDE91112B2FBF1F0002801DB014600E01D
:104200004142179117980002179098F8180010B1C2
:104210004FF4803410E041F25C211998B0FBF1F4C6
:104220001798C0F58030444304F50040040C04F5B1
:10423000803464086443A40B1B9804FB00FA0AF55D
:1042400000404FEA104A0AFB0AFAB3460BF5004059
:104250004FEA104B0BFB0BFB0AEB0B001090109876
:1042600001F02CF80F900F9800040F900F98323047
:104270006421B0FBF1F11A98B1FBF0F940F6B530CA
:1042800009FB00F941F2883081444000B9FBF0F9A4
:10429000B9F5704F01D94FF47049DDE91D1008449C
:1042A00000F5FA704FF47A71B0FBF1F01C904FF406
:1042B000C8111C9801EB5001B1FBF0F0049000F024
:1042C000FDFF0B900B9800020B900B9800F5FA7015
:1042D0004FF47A71B0FBF1F00B9009FB09FA0B98DF
:1042E00000FB00FB0AEB0B0000F0E8FF0E904FF420
:1042F0007A710E98484318902FB11F9818B10E4943
:104300001898884201D90C4818902D99189808607F
:104310002D980068C5F84001079A1B992E982346EE
:10432000CDE90162009103902846DDE90C21FFF7F9
:10433000AFFD139013981AE7AE878F02666666008A
:104340009A9906002DE9F04307460C46154600BF32
:1043500029463846FFF762FE814609F5FA704FF4A8
:104360007A71B0FBF1F60846604300EB5600B0FBF3
:10437000F6F84046BDE8F0832DE9F04306460C46CA
:104380001546002729463046FFF748FE804608F5C7
:10439000FA704FF47A71B0FBF1F904FB09F000F503
:1043A000FA70B0FBF1F73846BDE8F0832DE9F0472D
:1043B00004460D46164600270221204600F0DEF88E
:1043C0000746AFB994F8F180B8F1000F06D100208C
:1043D000287009A0007886F8400009E0F220005D0E
:1043E000287004F1F309494606F14000FBF7FCFE92
:1043F0003846BDE8F08700000000000001460020BC
:10440000CAB20B0A9A40501C7047014600204A1C51
:104410005206100E7047F8B506460024002283218C
:104420003046FFF7EAFC0443B4B9002500BF6A46F2
:1044300083213046FFF70FF904469DF8000000B9CC
:1044400004B103E06D1CB5F5FA6FF0D300BFB5F50C
:10445000FA6F01D36FF00604012283213046FFF783
:10446000CCFC04432046F8BD10B5014600200022D4
:10447000002361B14A1E02E052085C1CA3B222F084
:10448000FF04002CF8D1144663F31F24A0B210BD22
:10449000014600200122C2EB6102D0B27047000049
:1044A0007CB506460C460025224669463046FFF795
:1044B0007DFF0546002D26D19DF8000020B91EA1E4
:1044C0002046FBF791FE19E09DF80000222808DC49
:1044D0009DF80000202804D01AA12046FBF784FE96
:1044E0000CE09DF80000272804DA19A12046FBF70C
:1044F0007BFE03E019A12046FBF776FE1DA104F127
:104500002000FBF771FE35B904F16002C02130468E
:10451000FFF7A1F805466DB901AAC2213046FFF7A1
:104520009AF80546012084F861009DF8040000090E
:1045300084F8620028467CBD564C35334C305820F8
:1045400054533000564C35334C30582054533100BE
:10455000564C35334C30582054533200564C35337A
:104560004C305820455331206F72206C6174657255
:1045700000000000564C35334C3058002DE9F04F08
:1045800093B005460F46002400200E900D900C902D
:104590000B90824683464FF4C8500A904FF00009B2
:1045A000002009900290F020465D072E7ED0012267
:1045B00080212846FFF721FC04430122FF212846E1
:1045C000FFF71BFC0443002211462846FFF715FCA9
:1045D00004430622FF212846FFF70FFC044312AADA
:1045E00083212846FFF737F804439DF8480040F040
:1045F000040283212846FFF700FC04430722FF2121
:104600002846FFF7FAFB0443012281212846FFF7E1
:10461000F4FB04432846FFF711F8044301228021EC
:104620002846FFF7EAFB044307F00100002855D0B5
:1046300006F00100002851D16B2294212846FFF793
:10464000DCFB04432846FFF7E6FE044311AA902151
:104650002846FFF716F804431198C0F306200E9081
:104660001198C0F3C0300D90242294212846FFF702
:10467000C4FB04432846FFF7CEFE044311AA902151
:104680002846FEF7FEFF04431198000E8DF8000047
:104690001198000C8DF801001198000A8DF80200A5
:1046A0001198C0B28DF80300252200E0A4E1942106
:1046B0002846FFF7A2FB04432846FFF7ACFE04435D
:1046C00011AA90212846FEF7DCFF04431198000E42
:1046D0008DF804001198000C8DF8050007F0020019
:1046E00002287DD106F002000028FAD1022294218E
:1046F0002846FFF782FB04432846FFF78CFE04435D
:1047000010AA90212846FEF7A6FF04437B2294219D
:104710002846FFF772FB04432846FFF77CFE04435C
:104720000FAA90212846FEF796FF04437722942192
:104730002846FFF762FB04432846FFF76CFE04435C
:1047400011AA90212846FEF79CFF04437F2111986F
:1047500001EA50608DF810001198C0F386408DF882
:1047600011001198C0F3C6208DF812001198C0F303
:1047700006108DF8130011980007400E1290782251
:1047800094212846FFF739FB04432846FFF743FEF0
:10479000044311AA90212846FEF773FF04437F21AA
:1047A000119801EA50709DF848100844C0B28DF885
:1047B00014001198C0F386508DF815001198C0F3BD
:1047C000C6308DF816001198C0F306208DF817003A
:1047D0001198C0F346008DF818001198C00700E04A
:1047E0005FE0400E1290792294212846FFF705FBE6
:1047F00004432846FFF70FFE044311AA90212846E0
:10480000FEF73FFF04437F21119801EA90609DF875
:1048100048100844C0B28DF819001198C0F3C64082
:104820008DF81A001198C0F306308DF81B0011980E
:10483000C0F346108DF81C001198C006400E12906F
:104840007A2294212846FFF7D8FA04432846FFF736
:10485000E2FD044311AA90212846FEF712FF04430B
:104860007F21119801EA90709DF848100844C0B269
:104870008DF81D001198C0F3C6508DF81E001198D8
:10488000C0F306408DF81F001198C0F346208DF844
:1048900020001198C0F386008DF8210000208DF8CB
:1048A000220007F00400042873D106F00400002859
:1048B0006FD17B2294212846FFF79FFA04432846B4
:1048C000FFF7A9FD04430CAA90212846FEF7D9FE64
:1048D00004437C2294212846FFF78FFA044328469C
:1048E000FFF799FD04430BAA90212846FEF7C9FE65
:1048F0000443732294212846FFF77FFA0443284695
:10490000FFF789FD044311AA90212846FEF7B9FE5E
:10491000044311980006000C099074229421284643
:10492000FFF76BFA04432846FFF775FD044311AA0D
:1049300090212846FEF7A5FE04431199099840EA04
:1049400011600990752294212846FFF756FA044316
:104950002846FFF760FD044311AA90212846FEF780
:1049600090FE0443119800064FEA104976229421E4
:104970002846FFF742FA04432846FFF74CFD04435C
:1049800011AA90212846FEF77CFE0443119849EABB
:104990001069002281212846FFF72FFA04430622DE
:1049A000FF212846FFF729FA044312AA832128464B
:1049B000FEF751FE04439DF8480000F0FB028321FE
:1049C0002846FFF71AFA04430122FF212846FFF781
:1049D00014FA0443012200212846FFF70EFA04438B
:1049E0000022FF212846FFF708FA04430022802115
:1049F0002846FFF702FA0443002C60D1072E5ED050
:104A000007F00100A8B106F0010090B90E9885F8F2
:104A100013010D9885F81401A04607E01DF8081051
:104A200005F5957000F8081008F10108B8F1060FB7
:104A3000F4DB07F00200022811D106F0020070B981
:104A40009DF84010F12041559DF83C10F220415551
:104A500005F1F300039004A90398FBF7C5FB07F0E9
:104A60000400042824D106F0040008BB4FF48C7025
:104A70000C994151001D0B99415109984002029037
:104A80004FF49071029848514FF0000BB9F1000FAC
:104A90000CD00A98A9EB000A4FF47A700AFB00F0D8
:104AA0004FEA101BCBF100000FFA80FBC5F80CB0E9
:104AB00046EA070012909DF84810F0204155204624
:104AC00013B0BDE8F08F2DE9F04F87B006460C46D5
:104AD00000254FF4FA60039040F276774FF4707837
:104AE0004FF4257940F24E2A40F2B22B484602900C
:104AF00040F2262001900020009007EB0800206083
:104B000005A93046FEF7B6FC05461DB1284607B09C
:104B1000BDE8F08F9DF8140028B99DF8150010B974
:104B20009DF8160008B303AA0221304603F0ECF802
:104B30000546D5B99DF8140020B120680399514469
:104B4000084420609DF8160038B120680399594444
:104B5000022202FB0100206007E09DF8150020B151
:104B60002068039949440844206075B99DF81700EE
:104B700058B16A460321304603F0C6F8054621685D
:104B8000009A029810440844206075B99DF81800F6
:104B900058B104AA0421304603F0B6F8054621684E
:104BA000049A01981044084420600DB9216871618D
:104BB0002846ACE72DE9F84306460C46002540F2AE
:104BC000FF774FF480586A4628213046FEF76FFD84
:104BD0000546BDB9BDF80000C0F30B000090BDF85C
:104BE0000000B84208DDBDF80000A0EB080000B2EC
:104BF000FA214843206005E0BDF8000000B2FA2128
:104C0000484320602846BDE8F883000070B504469C
:104C10000D460026204614F1080F54D01DDC10F17B
:104C2000140F64D00CDC10F1630F77D010F1320F49
:104C30006FD010F1280F64D010F11E0F73D15BE01C
:104C400010F10C0F30D010F10B0F4BD010F10A0FF8
:104C500043D010F1090F66D13AE0C01D082862D296
:104C6000DFE800F02C271D18130E090432A1284696
:104C7000FBF7BAFA5CE033A12846FBF7B5FA57E038
:104C800037A12846FBF7B0FA52E03AA12846FBF7D5
:104C9000ABFA4DE03BA12846FBF7A6FA48E040A15D
:104CA0002846FBF7A1FA43E042A12846FBF79CFA0D
:104CB0003EE046A12846FBF797FA39E046A1284690
:104CC000FBF792FA34E048A12846FBF78DFA2FE073
:104CD0004CA12846FBF788FA2AE04FA12846FBF7AB
:104CE00083FA25E051A12846FBF77EFA20E056A181
:104CF0002846FBF779FA1BE059A12846FBF774FA1E
:104D000016E05DA12846FBF76FFA11E006E000E02F
:104D100009E05FA12846FBF767FA09E063A128468E
:104D2000FBF762FA04E067A12846FBF75DFA00BFD3
:104D300000BF304670BD00004E6F204572726F722A
:104D40000000000043616C6962726174696F6E20DB
:104D50005761726E696E67204572726F7200000053
:104D60004D696E20636C6970706564206572726F46
:104D700072000000556E646566696E656420657238
:104D8000726F7200496E76616C6964207061726145
:104D90006D6574657273206572726F720000000039
:104DA0004E6F7420737570706F72746564206572D5
:104DB000726F7200496E74657272757074206E6FD6
:104DC0007420436C656172656400000052616E6717
:104DD00065206572726F720054696D65206F75741D
:104DE000206572726F7200004D6F6465206E6F7483
:104DF00020737570706F72746564206572726F7263
:104E00000000000042756666657220746F6F207343
:104E10006D616C6C000000004750494F206E6F744C
:104E2000206578697374696E670000004750494FC8
:104E30002066756E6374206E6F7420737570706F6A
:104E40007274656400000000436F6E74726F6C20B2
:104E5000496E74657266616365204572726F720097
:104E6000496E76616C696420436F6D6D616E64207C
:104E70004572726F720000004469766973696F6EE3
:104E8000206279207A65726F204572726F7200001D
:104E90005265666572656E63652053706164204972
:104EA0006E6974204572726F720000004E6F74203C
:104EB000696D706C656D656E746564206572726F86
:104EC00072000000556E6B6E6F776E204572726FC8
:104ED0007220436F646500002DE9FF4F8FB00746D5
:104EE0009946DDE91CA6002500200E900D900C903F
:104EF0000B900A900990089000240290019010985D
:104F0000C0F3C3045CB1052C09D0072C07D00C2CCE
:104F100005D00D2C03D00E2C01D00F2C02D14FF058
:104F2000010B01E04FF0000B2DB90BAA0021384610
:104F3000FEF729F905469DF82C00D0B1CDB901AB9B
:104F400007AA51463846FFF775F8054615B9019886
:104F5000AAF80A006DB906AA00213846FEF721F921
:104F60000546069828B1DDE90610884201D90120DE
:104F70000E902DB909AA02213846FEF704F905461C
:104F80009DF8240050B34DBB05AA02213846FEF718
:104F900008F905462DB90122FF213846FEF72DFFFD
:104FA00005462DB902AAB6213846FEF780FB054614
:104FB0002DB90022FF213846FEF71FFF0546BDF838
:104FC0000800400200900098C7F84801059828B1F1
:104FD00005990098884201D901200D902DB908AAA1
:104FE00003213846FEF7CFF805469DF82000C8B1EA
:104FF000C5B9B9F1000F02D10020039004E0119867
:105000000002B0FBF9F0039004AA03213846FEF732
:10501000C8F80546049828B1DDE90301884201D2A9
:1050200001200C9035BBBBF1010F02D1FF20307085
:1050300028E0012C03D0022C01D0032C02D1052042
:1050400030701FE0062C01D0092C02D104203070F2
:1050500018E0082C04D00A2C02D00D98012802D1A7
:10506000032030700EE0042C02D00C98012802D1ED
:105070000220307006E00E98012801D1307001E066
:1050800000203070307810B90020AAF80A000AAA6F
:1050900001213846FEF777F8054675BB9DF82C00D0
:1050A00010B10E98012802D14FF0010801E04FF035
:1050B000000887F82E80042C02D09DF8280010B933
:1050C0004FF0010801E04FF0000887F82F809DF8AD
:1050D000240010B10D98012802D14FF0010801E021
:1050E0004FF0000887F830809DF8200010B10C9830
:1050F000012803D14FF0010802E003E04FF000085F
:1051000087F83180284613B0BDE8F08F70B50446AB
:105110000D460026062C22D2DFE804F003080D120B
:10512000171C13A12846FBF75FF81DE014A12846C1
:10513000FBF75AF818E016A12846FBF755F813E0DC
:1051400017A12846FBF750F80EE019A12846FBF7F7
:105150004BF809E01AA12846FBF746F804E01CA129
:105160002846FBF741F800BF00BF304670BD000085
:1051700052616E67652056616C69642020200000D2
:105180005369676D61204661696C20202020000012
:105190005369676E616C204661696C2020200000B5
:1051A0004D696E2052616E6765204661696C000032
:1051B0005068617365204661696C202020200000E2
:1051C0004861726477617265204661696C200000F5
:1051D0004E6F2055706461746520202020200000EF
:1051E000F8B507460D4614460026E86820606A4672
:1051F0002946384600F008F806461EB9206800998E
:10520000084420603046F8BD2DE9F84305460E46B7
:10521000144600270020206069462846FEF793F9CF
:1052200007465FB99DF8000040B1D5F82080B08AEC
:1052300000FB08F909F18000000A20603846BDE84B
:10524000F883F8B507460C461546002614B1012C24
:105250000ED106E06A4650213846FEF7FCF90646B4
:1052600009E06A4670213846FEF7F5F9064602E085
:105270006FF0030600BF00BF26B99DF80000FFF7DE
:10528000C4F828703046F8BD08B501210420FCF7A9
:10529000D7FE0C20ADF8000010208DF8030003208D
:1052A0008DF8020069460448FBF770FF0C210248A4
:1052B000FCF702F808BD000000080140024600208B
:1052C0004FF0804100E089089142FCD809E0431882
:1052D000934204D84318D21A01EB500000E0400872
:1052E00089080029F3D170472DE9FF5F06460D4676
:1052F00000200390002463E02F5D641CFF2F44D145
:10530000285D0290641C029830B1012811D0022857
:105310001CD0032834D126E015F80480641C15F84D
:105320000490641C09EB08201FFA80FAA6F834A147
:105330002AE015F80480641C15F80490641C09EB3D
:1053400008201FFA80FAA6F836A11DE015F804809F
:10535000641C15F80490641C09EB08201FFA80FAFD
:10536000A6F838A110E015F80480641C15F8049024
:10537000641C09EB08201FFA80FAA6F83CA103E0A0
:105380006FF00300039000BF1AE0042F15DC285DC6
:105390000190641C4FF0000B05E0285D0DF80B0038
:1053A000641C0BF1010BBB45F7DB3B466A463046FC
:1053B0000199FEF74EFD039002E06FF003000390A9
:1053C000285D10B10398002896D0039804B0BDE87A
:1053D000F09FF8B50646002400200090002500BF8D
:1053E00069463046FDF738FF044604B10FE09DF8EA
:1053F0000000012800D10AE06D1CB5F5FA6F02D358
:105400006FF0060403E03046FEF718F9E8E700BF46
:105410002046F8BD2DE9F04F85B005460E46904672
:105420001F460024A146A246A3460FB195F830912D
:10543000022201212846FEF7E0FC044624B900219F
:10544000284600F094F904468CB9B8F1010F0ED14A
:105450000120002104AA5B46CDE90026CDE9021017
:1054600052460146284600F037FA044601E0002083
:1054700030704CB947B14A4601212846FEF7BDFCC1
:1054800004460CB985F83091204605B0BDE8F08F90
:105490002DE9F0470546894616461F460024A046DA
:1054A00095F8308100233A464946284600F07FF9B6
:1054B000044634B900233A4631462846FFF7AAFF8E
:1054C000044644B9424601212846FEF796FC0446AC
:1054D0000CB985F830812046BDE8F0872DE9F74FFB
:1054E00094B0044600254FF0B40B032011902C20FB
:1054F0001090002600200F900E904FF420678046F9
:1055000081464FF0060A0C900B900A900990089083
:1055100007900690B4F83C7100BF06E0002104F546
:10552000927000F8091009F10109D145F6D3012262
:10553000FF212046FEF761FC05462DB900224F21D0
:105540002046FEF75AFC05462DB92C224E21204656
:10555000FEF753FC05462DB90022FF212046FEF739
:105560004CFC05462DB95A46B6212046FEF745FCAF
:1055700005462DB9002280212046FEF73EFC054657
:1055800035B9002308AA09A92046FFF781FF05467F
:105590008DB900260F96B0460FA91198CDE900AB42
:1055A000CDE902600491414604F592739A1D2046AC
:1055B00002F08EFA0546002D44D10F9E0DA920461B
:1055C00004F000FA0546002D3AD1BDF83400B84287
:1055D00036DDA94606E0002104F5927000F80910B6
:1055E00009F10109D145F6D300E0761C0BEB06006A
:1055F00002F01CFF10B910988642F6D34FF0010854
:105600000FA91198CDE900ABCDE9026004914146A4
:1056100004F592739A1D204602F05AFA05468DB998
:105620000F9E0DA9204604F0CDF9054655B9BDF8E9
:105630003400B84206DD012006901198079001E081
:105640004FF00008002D7CD1BDF83400B84278DA64
:1056500008F0FF00069011980790524604F59271E9
:1056600012A8FAF790FDBDF83410C81B002801DB22
:10567000014600E041420B9100200A905DE00EAB34
:105680003246514604F5957002F0FEFA0E98401C21
:1056900010B96FF0310553E00E990BEB010002F0E9
:1056A000C5FE404502D001200A9049E00798401C01
:1056B00007900E9E3246514604F5927002F05EFA53
:1056C000054635B9761C04F59271204604F082FA3D
:1056D000054605B134E00DA9204604F073F90546EE
:1056E00005B12DE0BDF83410C81B002801DB0146D0
:1056F00000E041420C91BDF83400B84215DDDDE90F
:105700000B1088420DD912A9204604F063FA054611
:10571000524612A904F59270FAF735FD0798401E1B
:10572000079001200A9008E00BE00C980B9052467D
:1057300004F5927112A8FAF726FD0A9800289ED067
:1057400000BF85B9159907980860169906980870E2
:10575000012184F815111598017884F81311169811
:10576000017884F81411284617B0BDE8F08F70B5A1
:1057700006460D46002434B945F0010200213046AA
:10578000FEF73BFB04461CB93046FFF722FE0446F9
:1057900024B900213046FDF72DFB04462CB9002228
:1057A00011463046FEF729FB0446204670BD2DE920
:1057B000F04F85B005460E4690461F460024A14690
:1057C000A246A346002004900FB195F83091012223
:1057D00011462846FEF711FB044624B9402128460D
:1057E000FFF7C5FF044684B9B8F1010F0DD10020C1
:1057F000012104AA5B46CDE90062CDE902105246C0
:10580000284600F069F8044601E0002030704CB9E9
:1058100047B14A4601212846FEF7EFFA04460CB983
:1058200085F83091204605B0BDE8F08F2DE9F041B4
:1058300004460D46164600270123324629462046D7
:1058400000F021F807463846BDE8F081F8B5054676
:105850000E461446002704236A463146284600F0C7
:1058600012F807469DF8000000069DF8011000EBB5
:1058700001409DF8021000EB01209DF80310084440
:1058800020603846F8BD2DE9F04106460F46144623
:105890001D464FF0000823462A463946304600F0A0
:1058A000C1FB08B14FF001084046BDE8F081F8B5F2
:1058B00005460E461446002702236A46314628460E
:1058C000FFF7E1FF07469DF801009DF8001000EB8F
:1058D000012020803846F8BD2DE9F84F80460D465E
:1058E00091469A46DDE90BB60D9F002400200090FA
:1058F0000122FF214046FEF780FA044300221146B0
:105900004046FEF77AFA04430022FF214046FEF7A4
:1059100074FA044375B12EB1CB2140460A9AFDF7C3
:105920009AFE0443AFB16A46EE214046FDF793FE6E
:1059300004430EE02EB14A46CB214046FEF75DFA05
:10594000044337B153468022EE214046FEF72CFA3D
:1059500004430122FF214046FEF74FFA044301228F
:1059600000214046FEF749FA04430022FF21404649
:10597000FEF743FA04439DF8000000F0EF008BF8B7
:1059800000002046BDE8F88F2DE9F04F89B0804631
:105990000F4600264FF4FA60069040F276794FF4F5
:1059A000707A4FF4257B40F24E20059040F2B220F1
:1059B00004905846039040F2262002900020019067
:1059C00044F62060009000250098874204D22E1FE4
:1059D000304609B0BDE8F08F09EB0A003C1A07A970
:1059E0004046FDF747FD0646002E3BD19DF81C00C2
:1059F00030B99DF81D0018B99DF81E00002831D05F
:105A000006AA0221404602F07FF906460EB1304652
:105A1000DFE79DF81C0040B1DDE905010D18A54246
:105A200001D2641B01E06FF003060EB13046D0E7EF
:105A30009DF81E0050B10699049808444500A542FF
:105A400001D2641B0EE06FF003060BE09DF81D0011
:105A500040B1069800EB0B05A54201D2641B01E0A2
:105A60006FF003060EB13046B3E79DF81F0070B12A
:105A700001AA0321404602F047F90646019903981E
:105A80000D18A54201D2641B01E06FF0030666B950
:105A90009DF8200048B10298241A2246042140466D
:105AA00004F0A4F80646C8F81470304691E72DE9D2
:105AB000F04F87B0044689461646002500274FF070
:105AC000B40A4FF0060B2C2006900122FF2120463D
:105AD000FEF793F905462DB900224F212046FEF727
